:100C1000000E1B7F7F1B0E0000040C187F7F1B0E35
:100C200000080C057F7F1E0CC00041221A7C7D1A33
:100C3000006061120A7E7F0800060E080B3E3E0B24
:100C400000030B080B3E3E0B00060E08093F3E0B4F
:100C5000000E137E7E1F0E0008137E7E121D0C00F8
:100C600009127E7F1013030009127E7F101C0C00F6
:100C7000000C157E7E170E000030380D7E7F1D089B
:100C8000C0C0301B7C7F0800000037F8FA34000039
:100C900000001B7C7C1A01000000091E7C7F1800EC
:100CA00000001B7C7C1B00000000091E7C7F1800DC
:100CB00000001B7C7C1B00000810167C7F100800C5
:100CC0000010137C7E1800000008137C7F101000B9
:100CD000000812FCFD3A0000000812FCFC22100083
:100CE000000061127C7F106000002011127C7E19D0
:100CF000000000310A7C7E0D00002011127C7E195C
:100D0000000000310A7C7E0D00002011127C7E194B
:100D1000000000310A7C7E0D00002011127C7E193B
:100D2000000000310A7C7E0DF9B8FA67FB04FB4B2A
:100D3000FBCFFC44FC79FCDCFD34FD82FDA6000009
:100D4000FD09010605030603050306030506010662
:100D50000B0C010600030103010300030106010659
:100D60000B0C010301030606050306030506010635
:100D70000B0C010600030103010300030106010639
:100D8000030C060C050C010601060B060006010605
:100D90000B060603060305030603050601060B0CF6
:100DA0000106000301030103000301060106010C13
:100DB0000B060106000301030103000301060106FF
:100DC000030C0A0C090C070C050605060A0C090C95
:100DD0000706050C070C0B060503050605060C06A1
:100DE0000C060C0608060906010605060506080C91
:100DF0000B0C0B0C0B06010301060B0C0106050680
:100E00000506080C0B0C0B0C0B06010301060B0C62
:100E10000B0C010605060506080C0B0C0B0C0B064B
:100E2000010301060B0C010605060506080C0B0C58
:100E30000B0C0B06010301060B0C0B0C0503050341
:100E40000803050305030503050305030503040360
:100E50000506050605030503080305030503050349
:0C0E600005030503050304030506050651
:10158B0001710008470A0A0A0A0A0A0A0A08370000
:10159B0000000000000000086900000000000000CF
:1015AB00001023FEFDFBF7EFDFBF7F7EBDDBE7E720
:1015BB00DBBD7E0361235955023F0190017201018E
:1015CB007302016800044141C80000014F1E01462F
:0415DB0014012200D5
:10151D0030096A30026774422567F582740D3566AD
:10152D00F583E493756400F56574432567F582745E
:10153D000D3566F583E493F55274022567F567E47E
:10154D003566F566D3E56794FEE56694004005E4DF
:10155D00F566F567E56525E0FFE56433FE74282F34
:10156D00F582740D3EF583E493F55F740193F56098
:0E157D00E55FF58D85608BC202D2CAD28E2248
:0A1A9B00E4F566F567C28EC2CA22A8
:05000300C28EC2CA22FA
:051AA500D28ED2CA221E
:10180000758911E4F5C9F5C8758A18758CFCF5CD94
:10181000F5CCC28DD28CD2A9D2ABD2ADD2AFF56607
:07182000F567D202C290221D
:10199900C28DC28CC2A9C2ABC2ADC2AFE4F566F5B5
:0B19A90067C202C290F58075A0FF220B
:1009950030050AE5556003020C0F75550112162E38
:1009A5008F56E5546556FF5556F551E556F45FF5F6
:1009B50059855654E55114B409004003020C0F90B3
:1009C50009D275F003A4C58325F0C58373020BB165
:1009D500020BDC020BEB020BFC020B8E020AE5029A
:1009E5000A9E0209FB0209ED200502B20C3005033F
:1009F500121999B2052220071DE5716403701715B8
:100A050072E57270037572047B007A007972750F56
:100A150001E4FD121716300723E5716403701D7498
:100A25009C2540F54074FF353FF53FC3E540949064
:100A3500E53F94015006753F047540B0AF717E00E7
:100A4500EF64017002B20AEF64024E702430042193
:100A550020081E1546C3E5469414748094805003FF
:100A65007546147B007A007946750F017D021217D1
:100A750016E57164026003020C0F200403020C0FDB
:100A8500200803020C0F154FC3E54F94147480948E
:100A9500805003754F14020B80E545640160030225
:100AA5000C0F20031B0571E57164047002F571E5F7
:100AB500717006F55EC208D207300104C290C2010A
:100AC500AF717E00EF64037002B207EF64034E60FE
:100AD50003020C0F200403020C0F757102B20822E9
:100AE500200724E5716403701E0572C3E572940541
:100AF5007480948040037572017B007A0079727569
:100B05000F01E4FD121716300722E5716403701C0E
:100B150074642540F540E4353FF53FD3E54094B096
:100B2500E53F94044006753F01754090E571640208
:100B3500702430042120081E0546D3E5469423740D
:100B450080948040037546237B007A007946750FB3
:100B5500017D02121716E57164026003020C0F2075
:100B65000403020C0F200803020C0F054FD3E54FB9
:100B75009423748094804003754F237B007A007919
:100B85004F750F017D01021716E5456401700EF5DD
:100B950071F55EC204C208D207C20AC2030545E563
:100BA5004564037002F5453001608026AF717E0013
:100BB500EF6401700A055EE55E64047002F55EEFA0
:100BC50064024E7002B204E57164037002B2033030
:100BD5000138C290C20122E5456402702D20090347
:100BE500121A9BB209223009212000051200038048
:100BF50003121AA5B20022E5456401700DE5716482
:0B0C0500017007300102C290B2012212
:10002E00E55060030204E1755001E57114604C1453
:10003E0070030202A31470030203CF2403600302B1
:10004E0004E17B007A007961121902E561C4540F54
:10005E00F547E561540FF54875490DE562C4540F37
:10006E00F54AE562540FF54B754C0DE563C4540F1C
:10007E00F54DE563540FF54E0204DCE55E600302B8
:10008E00015D7F9412149E8F5D8E5C8D5B8C5AE4A5
:10009E00FFFEFD7C40AB5DAA5CA95BA85A1205DA97
:1000AE001208378F7375470F300A237E00D3EF94F3
:1000BE00037480948050047F148015D3EF9406EE61
:1000CE006480948040047F1580027F0D80027F0A39
:1000DE008F48300A14AF5DAE5CAD5BAC5A12083778
:1000EE00EF75F00A84AFF080027F0A8F49300A1E46
:1000FE00E4FFFE7D207C41AB5DAA5CA95BA85A1291
:10010E0005DA120837EF75F00A84AFF080027F0A25
:10011E008F4A300A1EE4FFFE7DC87C42AB5DAA5CAE
:10012E00A95BA85A1205DA120837EF75F00A84AFE8
:10013E00F080027F0A8F4B754C0D85734D754E0DF9
:10014E00300A047F0180027F008F39E4F53C22E5FE
:10015E005E640170477FA412149E8F5D8E5C8D5B72
:10016E008C5AE4FFFEFD7C40AB5DAA5CA95BA85AED
:10017E001205DA1208378F73754711300A047F0D96
:10018E0080027F0A8F48300A04AF7380027F0A8F85
:10019E0049300A047F0D804F7F0A804BE55E640272
:1001AE00704C7FD412149E8F5D8E5C8D5B8C5AE4E6
:1001BE00FFFEFD7C40AB5DAA5CA95BA85A1205DA76
:1001CE001208378F7375470B300A047F0D80027F3C
:1001DE000A8F48300A04AF7380027F0A8F49300AB3
:1001EE00047F0D80027F0A8F4A754B0A8053E55EAD
:1001FE00640360030204E17FE412149E8F5D8E5C43
:10020E008D5B8C5AE4FFFEFD7C40AB5DAA5CA95B66
:10021E00A85A1205DA1208378F7375470FE4F5489E
:10022E00300A047F0D80027F0A8F49300A04AF73B3
:10023E0080027F0A8F4A300A047F0D80027F0A8F68
:10024E004BAF5DAE5CAD5BAC5A120837EF75F00A82
:10025E008485F04CE4FFFE7D207C41AB5DAA5CA959
:10026E005BA85A1205DA120837EF75F00A8485F08A
:10027E004DE4FFFE7DC87C42AB5DAA5CA95BA85A2B
:10028E001205DA120837EF75F00A8485F04EE4F5A0
:10029E0039753C012230040302032F12000E12178F
:1002AE00D58F448E438D428C4175470B75480A7528
:1002BE00490A754A0AE4FBFA792078411206E312DC
:1002CE000837EF75F00A8485F04BAF44AE43AD426C
:1002DE00AC41120837EF75F00A8485F04CE4FFFE4E
:1002EE007D207C41AB44AA43A942A8411205DA12F3
:1002FE0008377C007D0A1209328D4DE4FFFE7DC861
:10030E007C42AB44AA43A942A8411205DA1208372F
:10031E007C007D0A1209328D4EE4F539753C018060
:10032E006975470C75480D2008073006047F0A8052
:10033E000CE54675F00A8475F00A84AFF08F4920FB
:10034E0008073006047F0A8008E54675F00A84AF78
:10035E00F08F4A754B0D3008073006047F0A800C6B
:10036E00E54F75F00A8475F00A84AFF08F4C3008B3
:10037E00073006047F0A8008E54F75F00A84AFF057
:10038E008F4D754E0DE4F539F53CAC4FE412080374
:10039E00AB44AA43A942A84112078060074005D288
:1003AE000BD20122AC46E4120803AB44AA43A94285
:1003BE00A8411207805005D20BC20122C20BC20106
:1003CE002220030302047675470D2007073006042A
:1003DE007F0A8002AF728F4875490D754A0A300741
:1003EE00073006047F0A8023C3E54094E8E53F9476
:1003FE00034016AE3FAF407C037DE81209327C000D
:10040E007D0A120932AF0580027F0A8F4B30070733
:10041E003006047F0A8014AE3FAF407C007D64122C
:10042E0009327C007D0A120932AF058F4C30070766
:10043E003006047F0A8014AE3FAF407C007D0A1266
:10044E0009327C007D0A120932AF058F4D30070745
:10045E003006047F0A800DAE3FAF407C007D0A124D
:10046E000932AF058F4E806675470D857248754906
:10047E000D754A0AC3E54094E8E53F94034016AE75
:10048E003FAF407C037DE81209327C007D0A1209E1
:10049E0032AF0580027F0A8F4BAE3FAF407C007DAE
:1004AE00641209327C007D0A1209328D4CAE3FAFC8
:1004BE00407C007D0A1209327C007D0A1209328DC1
:1004CE004DAE3FAF407C007D0A1209328D4EE4F5F1
:0404DE0039F53C228E
:10129B00E57224FE603E14606C147003021351243B
:1012AB00036003021381E4F522AF22EF3395E0FED6
:1012BB00C3EF9408EE648094804003021381E5220F
:1012CB00B553047F0180027F0074692522F8A607BD
:1012DB00052280D5E4F522AF22EF3395E0FEC3EF74
:1012EB009408EE648094804003021381C3740795C5
:1012FB0022B553047F0180027F0074692522F8A672
:10130B0007052280D2E4F522AF22EF3395E0FEC32E
:10131B00EF9404EE64809480505CEF2404FFE43E71
:10132B00FE7C00EFB55308ECB506047F0180027F0D
:10133B0000C3740795222469F8EFF674692522F827
:10134B00A607052280C2752204AF22EF3395E0C3B6
:10135B00648094804020E522B553047F0180027F96
:10136B0000C3740795222469F8EFF674692522F8F7
:06137B00A607152280D335
:011381002249
:0D1A8D00007F067EB47D1ADDFEDEFCDFFA70
:011A9A002229
:101A6D00AE071FEE600A7E027DEFDDFEDEFC80F02C
:011A7D002246
:10138200E4F566F56774232567F8E6F5A07F1E127B
:101392001A6D0567E56770020566C39408E56694F1
:1013A2000040E2E4F566F567C3740795672423F805
:1013B200E6F5A07F32121A6D0567E56770020566D1
:1013C200C39408E566940040DFE4F566F567742B84
:1013D2002567F8E6F5A07F50121A6D0567E567707C
:1013E200020566C39404E566940040E2E4F566F5FE
:1013F20067742F2567F8E6F5A07F64121A6D0567FA
:10140200E56770020566C39404E566940040E22233
:10105000E4F509F50AC290121AAA7B007A007972A7
:10106000750F01E4FD1215EC121A8D7B007A0079E0
:101070004F750F017D011215EC7B007A00794675E2
:101080000F017D021215EC7B007A0079611217784E
:101090007F9412149E8F5D8E5C8D5B8C5A12000EB5
:1010A000121A8DE4F5801209953005FA300C0812F9
:1010B0001382121800C20CE5456401700A12002E5A
:1010C000300BE3B2A580DFE5456402707375470A13
:1010D00075480A75490A754A0A754B0A754C0A75AE
:1010E0004D0A754E0AF53C12151DE4F508C3E508D6
:1010F0009408748094805020E5082509FFE433FEAD
:1011000074102FF582740C3EF583E493FD7C00AFE0
:10111000081218BE050880D5050AD3E50A9419748B
:101120008094804081E4F50A74082509F509D39478
:1011300010748094A750030210A6E4F5090210A6CB
:1011400075470A75480A75490A754A0A754B0A7542
:101150004C0A754D0A754E0AE4F53CFFFEFD7C40D5
:10116000AB5DAA5CA95BA85A1205DA1208378F7327
:101170007F9412149E8F5D8E5C8D5B8C5A12129B35
:031180000210A6B4
:03000B00020E6C76
:100E6C00C0E0C0F0C083C082C0D075D000C000C04C
:100E7C0001C002C003C004C005C006C007758A18B3
:100E8C00758CFC0555E555640A7002F5550550E561
:100E9C005064C87002F550E54564016003020F818F
:100EAC000557E55764087002F55774472557F8E65F
:100EBC00FD7C0074372557F8E6FB7A00AF57121704
:100ECC00A7AF717E00C3EF94017480948040190524
:100EDC0034E53470020533FDAC33BC010BBD900816
:100EEC00753300753400B206200103021035055825
:100EFC00EF64014E7020E55E701CE558C39573508D
:100F0C0005D290021035C3E558940A748094805031
:100F1C005EC290021035E57164026003021035ACBC
:100F2C004F120803A804A905AA06AB07AF44AE43A9
:100F3C00AD42AC411204E5C004C005C006C007AC0C
:100F4C0058E4120803A804A905AA06AB07D007D0D9
:100F5C0006D005D0041207805005D290021035C37C
:100F6C00E558940A748094805005C290021035752F
:100F7C005800021035E54560030210357469255799
:100F8C00F8E6FD7C00AF571217480536E5367002BF
:100F9C000535C39540E535953F402A0553E5536427
:100FAC0008701CF5530572E57264057003757201C7
:100FBC00AF72EF64036005EF64047003755304753E
:100FCC003500753600756800C3E568940874809424
:100FDC00805056E5536568704C0558E558C39573B9
:100FEC005030AF727E00EF640170047423801BEFED
:100FFC0064024E7009C3740795532423800EE57266
:10100C006403700474278002742B2553F8E6F5A052
:10101C008013C3E558940A74809480500575A0FF22
:10102C0080037558000568809FD007D006D005D086
:10103C0004D003D002D001D000D0D0D082D083D045
:04104C00F0D0E032CE
:03001B00021A2F97
:101A2F00C0E0E55FF58D85608B200204B2A58002D2
:051A3F00C28ED0E03270
:03002B00021A4472
:101A4400C0E075CB3C75CAB01552E5527002D202A3
:051A5400C2CFD0E0321A
:10118300000E1B7F7F1B0E0000040C187F7F1B0EBD
:1011930000080C057F7F1E0CC00041221A7C7D1ABB
:1011A300006061120A7E7F0800060E080B3E3E0BAC
:1011B30000030B080B3E3E0B00060E08093F3E0BD7
:1011C300000E137E7E1F0E0008137E7E121D0C0080
:1011D30009127E7F1013030009127E7F101C0C007E
:1011E300000C157E7E170E000030380D7E7F1D0823
:1011F300C0C0301B7C7F0800000037F8FA340000C1
:1012030000001B7C7C1A01000000091E7C7F180073
:1012130000001B7C7C1B00000000091E7C7F180063
:1012230000001B7C7C1B00000810167C7F1008004C
:101233000010137C7E1800000008137C7F10100040
:10124300000812FCFD3A0000000812FCFC2210000A
:10125300000061127C7F106000002011127C7E1957
:10126300000000310A7C7E0D00002011127C7E19E3
:10127300000000310A7C7E0D00002011127C7E19D3
:10128300000000310A7C7E0D00002011127C7E19C3
:08129300000000310A7C7E0D11
:0A19E800EF1FAC0670011E4C600EEC
:0C19F200750B02750CC7D50CFDD50BFA67
:0319FE0080E8225C
:0216AB00AD0789
:1016AD00E4FBEBC394087480948050237E00748017
:1016BD00A803088006CEA2E713CE13D8F8FFEDF5E8
:1016CD0082EF558224FF92B4D2B6C2B60B80D3D22C
:0316DD00B5C2B5DE
:0116E00022E7
:1018BE00AA07AF051216ABAF02A807748008800204
:1018CE00C313D8FCF4F5807F017E001219E87580F1
:0218DE00FF22E7
:051AAA00C2B6C2B52226
:1019B400D2B7C2B77FF7DFFED2B77F20DFFEA2B770
:0919C400E433FE7FF7DFFEAF06FD
:0119CD0022F7
:101A1900C2AFC2B77E04DEFEEF24FF92B77E18DEA6
:051A2900FED2B7D2AFB0
:011A2E002295
:10196100C2AFC2B77F02DFFED2B77F02DFFEA2B7EE
:0B197100E433FE7F18DFFED2AFAF06AC
:01197C002248
:0218E000AD0752
:1018E200E4FCECC39408748094805013A80474013F
:0F18F200088002C333D8FC5DFF121A190C80E383
:0119010022C3
:10184E00E4FDFCECC3940874809480501612196168
:10185E00EF600DA8047401088002C333D8FC420562
:05186E000C80E0AF0555
:011873002252
:0D000E001219B47FCC1218E07F440218E0F4
:1017D5001219B47FCC1218E07FBE1218E012184E11
:1017E5008F0B12184EEFFEE50BFFFDAC06EC120752
:0B17F500FEE4FBFA798078410206E375
:10197D00E4FEEEC3940874809480500FC2B6EF134A
:0B198D0092B4EFC313FFD2B60E80E748
:01199800222C
:101A5900C2B500C2B600D2B50012197DAF05121980
:041A69007DC2B52263
:10166E00E4FDC2B500C2B600D2B50012197DE4FF8A
:10167E00EFC39408748094805011C2B6EDC313FD6D
:10168E0030B403430580D2B60F80E5C2B500C2B6B2
:0C169E0000D2B600C2B400D2B400AF0508
:0116AA00221D
:10177800E4FD7F8E121A591208B8FD7F84121A5997
:101788009000011208D1FD7F82121A5990000212AE
:0F17980008D1FD7F80121A597D807F8E021A5969
:101902007F8512166EEF1208FE7F8312166E90000C
:1019120001EF1209107F8112166E900002EF020988
:0119220010B4
:10162E00E4FF20B1027F0520B0027F0620B2027FC8
:10163E000720B3027F08D296D295D294C2972093F8
:10164E00027F012092027F022091027F03D297D265
:0F165E0095D294C2962093027F042092027F09B6
:01166D00225A
:0C15DF000112000113FF0110000111FFB8
:10174800ED4C600FA8077401088002C333D8FC422F
:1017580010800EA8077401088002C333D8FCF45225
:0F17680010E51065116008E510F4F5A08510116B
:01177700224F
:101943003F065B4F666D7D077F6F00397340863EB0
:0E1953008838898E08011C1814100C08040036
:1017A700EF90195993FFE5A054E3FEEF4EF5A0E43F
:1017B700F58074432DF58274193CF583E493FFF5A6
:0E17C70080EB4A6006EF4480F580228F80227E
:02149E00A9079C
:1014A000E4FFFEC2B6C2B5FDEDC39408748094801B
:1014B0005016E9C4131313540124FF92B4E925E034
:1014C000F9C2B6D2B60D80E07D06EDD394007480EB
:1014D000948040031D80F3D2B60000C2B60000E441
:1014E000FDEDC3940C748094805014EF25E0FFEE62
:1014F00033FED2B6C2B6A2B7E43342070D80E2D2C1
:10150000B5AD07AC06E41207FEE4FBFA7980784536
:0D1510001206E3E4FBFA79A078400205DA48
:0419CE00D2A17F051E
:1019D200000000000000000000000000000000AE57
:0619E200071FEE70EB226E
:0F1A7E00D2A01219CEC2A07F051219D2C2A12286
:0C001E00C2A01219CED2A07F050219D298
:0216E100AD0753
:1016E300E4FCECC39408748094805024C2A17F0569
:1016F3001219D2ED30E704D2A08002C2A07F0512F6
:1017030019D2D2A1ED25E0FD7F051219D20C80D2AA
:02171300C2A171
:0117150022B1
:10187400E4FCECC394087480948050171219CEEDE4
:1018840025E0FD30A003430501C2A17F051219D252
:051894000C80DFAF0530
:01189900222C
:10189A00AB05121A7E7FA01216E11218ACAF031222
:0218AA0016E145
:1018AC001219CEA2A0E433FDC2A17F051219D2AF4A
:0118BC000526
:0118BD002208
:101A0100C2A1EF24FF92A07F051219D21219CEC2F2
:081A1100A1D2A07F050219D249
:02182700AB070D
:10182900E4FD121A7E7F901218A1121A7E7F91127E
:1018390016E11218AC121874AD077F01121A0112C1
:04184900001EAF05C9
:01184D002278
:10192300AB07121A7E7F901216E11218AC7F411298
:1019330016E11218AC121A7EAF031216E102001E52
:101716008B0B8A0C890D12189AAF0F150FEF601FED
:10172600AB0B050DE50DAA0C7002050C14F9120899
:10173600B8FF1216E11218AC7FC81219D280DA026D
:02174600001E83
:1015EC008B0B8A0C890D12189A121A7E7FA1121677
:1015FC00E11218ACAF0F150FEF6024121874AB0B7F
:10160C00050DE50DAA0C7002050C14F9EF1208FE7D
:10161C00E50F6004E4FF80027F01121A0180D502FD
:02162C00001E9E
:1004E2000208A3E86480F8E933E83360110460F09D
:1004F200ED33EC337009E8FCE9FDEAFEEBFF220480
:1005020060DED3EB9FEA9EE99DE8C2E78CF0C2F77A
:1005120095F0400CE8CCF8E9CDF9EACEFAEBCFFB46
:1005220012086E85D0F05804700320D5B3E8047029
:10053200075002B2D50208AD92D5EC0460F7E4CCC4
:10054200C0E0C398F8603B94186008400DD0E0FB0F
:10055200020885E4FBFAC9FC8028E830E406E4C915
:10056200FBE4CAFCE830E305E4C9CACBFCE8540763
:100572006010F8C3E913F9EA13FAEB13FBEC13FC6E
:10058200D8F130F52FC3E49CFCEF9BFFEE9AFEED11
:1005920099FDD0E0FBEF4E4D4C701222DB030208B6
:1005A200AAEC2CFCEF33FFEE33FEED33FDED30E72A
:1005B200EB020885EF2BFFEE3AFEED39FDD0E0FBB2
:1005C20050130BBB00030208ADED13FDEE13FEEF5B
:0805D20013FFEC13FC02088585
:1005DA00EC4D6011E8497017ED33EC3304600DE41B
:1005EA00FCFFFEFD22E933E8330470F80208A31287
:1005FA00086E58046009E4CC248150062850090288
:10060A0008AD2840030208AAC0E0EB4A7044B9804A
:10061A0006D0E0FB020899EF4E701CBD8008EBFF84
:10062A00EAFEE9FD80EBE98DF0A4FEE5F00206C3DF
:10063A00E9CDF9EAFEEBFFEF89F0A4FCE5F0CE89FB
:10064A00F0A42EFFE435F0CD89F0A42DFEE435F0B8
:10065A008067EF4E7005BD80D780C3EF8BF0A4ACE6
:10066A00F0EE8BF0A42CFCE435F0F8EF8AF0A42C21
:10067A00E5F038FCE433CB8DF0A42CFCE5F03BF834
:10068A00EE8AF0A42CFCE5F038F8E433CF89F0A424
:10069A002CFCE5F038CF3400CE89F0A42FFFE5F02A
:1006AA003EFEE433C98DF0A42EFEE5F039CD8AF082
:1006BA00A42FFFE5F03EFEE43DFD33D0E0FB5007FA
:1006CA000BBB000F0208ADEC2CFCEF33FFEE33FE40
:0606DA00ED33FD0208856E
:1006E0000208ADEC5D046005E8590470030208A33C
:1006F00012086E580460F6EC4860F2EC7004FDFEDF
:10070000FF22C860DB2481C85009C39860025006EC
:100710000208AA9850CAF582E9294B4A7005AB82B3
:1007200002089975F0007C1A7880C3EF9BEE9AED71
:1007300099400DC3EF9BFFEE9AFEED99FDE842F064
:10074000DC23ACF0D0E0FFD0E0FED0E0FDAB8220B7
:10075000E7101BEB60BAEC2CFCEF33FFEE33FEED41
:1007600033FD020885E803F830E705C0F075F000B6
:10077000EF2FFFEE33FEED33FD40B830E7C280AA25
:1007800074F8CC6480CCC86480C8F58204604FC320
:10079000EB9FF5F0EA9E42F0E99D42F0E89C45F0BF
:1007A000603C501DE5825FFFE582D313CB5BCBF449
:1007B0002B5582FB50280ABA002409B90020088072
:1007C0001DE5825BFBE582D313CF5FCFF4C3132F0C
:1007D0005582FF50090EBE00050DBD00010CC3EB94
:1007E0009FF5F0EA9E42F0E99D42F0E89C45F060FA
:0907F00007CC4820E701B3EC221C
:1007F90075F020800E75F010800575F0087D007E7B
:10080900007F003392D530D503120987EC334010AD
:10081900EF33FFEE33FEED33FDEC33FCD5F0ED2283
:0E082900E5F0247EA2D513CC92E7CDCEFF22BF
:10083700EDD2E7CD33EC3392D524814006E4FFFEB9
:10084700FDFC22FCE4CFCECDCC24E0501174FF8018
:10085700EDC3CC13CCCD13CDCE13CECF13CF0470B5
:07086700F030D5DE02098725
:10086E00E9D2E7C933E833F892D5EDD2E7CD33ECD0
:07087E0033FC5002B2D52249
:10088500EC30E7100FBF000C0EBE00080DBD0004D4
:100895000BEB6014A2D5EB13FCED92E7FD2274FF80
:1008A500FCFDFEFF22E480F8A2D574FF13FC7D80D9
:0308B500E480EFED
:03000000021412D5
:0C141200787FE4F6D8FD75817302145950
:1008B800BB010689828A83E0225002E722BBFE023E
:0908C800E32289828A83E4932271
:1008D100BB010CE58229F582E5833AF583E02250DC
:1008E10006E92582F8E622BBFE06E92582F8E22226
:0D08F100E58229F582E5833AF583E4932240
:1008FE00BB010689828A83F0225002F722BBFE01D9
:02090E00F322D2
:10091000F8BB010DE58229F582E5833AF583E8F01D
:10092000225006E92582C8F622BBFE05E92582C8C9
:02093000F222B1
:10093200BC000BBE0029EF8DF084FFADF022E4CCA9
:10094200F875F008EF2FFFEE33FEEC33FCEE9DEC72
:10095200984005FCEE9DFE0FD5F0E9E4CEFD22EDB8
:10096200F8F5F0EE8420D21CFEADF075F008EF2F02
:10097200FFED33FD4007985006D5F0F222C398FDF3
:050982000FD5F0EA2290
:0E098700C3E49FFFE49EFEE49DFDE49CFC2281
:10141E00021050E493A3F8E493A34003F68001F284
:10142E0008DFF48029E493A3F85407240CC8C333CF
:10143E00C4540F4420C8834004F456800146F6DF9E
:10144E00E4800B010204081020408090158BE47E8E
:10145E00019360BCA3FF543F30E509541FFEE49393
:10146E00A360010ECF54C025E060A840B8E493A35A
:10147E00FAE493A3F8E493A3C8C582C8CAC583CA85
:10148E00F0A3C8C582C8CAC583CADFE9DEE780BE3D
:0115EB0000FF
:00000001FF
